:1000000018C1000028C1000026C1000024C1000062
:1000100022C1000020C100001EC100001CC1000060
:100020001AC1000018C1000016C1000014C1000070
:1000300012C1000010C100000EC100000CC1000080
:100040000AC1000008C1000006C1000004C1000090
:1000500002C1000000C10000FEC0000039C3000062
:10006000FAC00000F8C00000F6C00000F4C00000B4
:10007000F2C00000F0C00000EEC00000ECC00000C4
:10008000EAC00000E8C00000E6C00000E4C00000D4
:10009000E2C00000E0C00000DEC00000DCC00000E4
:1000A000DAC00000D8C00000D6C00000D4C00000F4
:1000B000D2C00000D0C00000CEC00000CCC0000004
:1000C000CAC00000C8C00000C6C00000C4C0000014
:1000D000C2C00000C0C00000BEC00000BCC0000024
:1000E000BAC0000079017C016B016F017301B3019B
:1000F000800184018A018E01920198019C01A00176
:10010000B301A601AA01AE01ED01F201F70101025E
:100110000B02840215021D0225022F02390243023E
:1001200052025C028402660270027A0200000A0B2C
:1001300002090C0D0E080703040100000000000076
:1001400000000000000000000000000000000000AF
:10015000000000000000000012111000000000006C
:10016000000000000000000000000000000000008F
:10017000000000002200250028002B002E00310086
:10018000340002010000050108010B0100002100FC
:10019000240027002A002D00300033000101000058
:1001A000040107010A0105050505070508080808F7
:1001B000020202020A0A08080404040401010101FF
:1001C00001010101030303030303030304070707FA
:1001D0000C0C0C0C0C0C0C0C02020202060606069F
:1001E000060606060B0B0B0B0B0B0B0B010210206C
:1001F000200808102040102040800201020108045D
:1002000002010102040810204080804020100804F0
:100210000201800402018040201008040201080449
:10022000020101020408102040800102040810208D
:10023000408011241FBECFEFD1E2DEBFCDBF00E072
:100240000CBF22E0A0E0B2E001C01D92AA30B207CC
:10025000E1F788D27FC3D4CE90E0FC01E451FE4F99
:100260002491FC01EA55FE4F8491882399F090E097
:10027000880F991FFC01E457FE4FA591B491FC0132
:10028000EE58FE4F859194918FB7F894EC91E22B44
:10029000EC938FBF0895362F90E0FC01E45DFE4F94
:1002A0004491FC01E451FE4F2491FC01EA55FE4FBC
:1002B0009491992309F46BC0442309F454C050E08D
:1002C000FA013197E231F10508F04DC08827EE5868
:1002D000FF4F8F4F23C3809180008F7707C080919D
:1002E00080008F7D03C080918000877F8093800095
:1002F0003AC084B58F7702C084B58F7D84BD33C08A
:100300008091B0008F7703C08091B0008F7D809383
:10031000B00029C0809190008F7707C08091900035
:100320008F7D03C080919000877F809390001BC0D9
:100330008091A0008F7707C08091A0008F7D03C0BF
:100340008091A000877F8093A0000DC08091200144
:100350008F7707C0809120018F7D03C0809120019D
:10036000877F80932001E92FF0E0EE0FFF1FEE580A
:10037000FE4FA591B4919FB7F894311104C08C91B0
:100380002095282302C0EC912E2B2C939FBF08951B
:100390001F93CF93DF93182FEB015EDF209711F4AB
:1003A00060E004C0CF3FD10531F461E0812FDF91DF
:1003B000CF911F9170CFE12FF0E0E45DFE4FE4910B
:1003C0008E2F90E0FC013197E231F10508F09CC0DE
:1003D0008827EC57FF4F8F4FA1C284B5806884BD3A
:1003E000C7BD97C084B5806284BDC8BD92C08091EE
:1003F0008000806880938000D0938900C09388003B
:1004000088C080918000806280938000D0938B00B0
:10041000C0938A007EC080918000886080938000B5
:10042000D0938D00C0938C0074C08091B000806820
:100430008093B000C093B3006CC08091B000806224
:100440008093B000C093B40064C080919000806835
:1004500080939000D0939900C09398005AC08091E7
:100460009000806280939000D0939B00C0939A008C
:1004700050C080919000886080939000D0939D0040
:10048000C0939C0046C08091A00080688093A0002B
:100490008091A0008F7B8093A000D093A900C0938F
:1004A000A80037C08091A00080628093A000D09304
:1004B000AB00C093AA002DC08091A00088608093FB
:1004C000A000D093AD00C093AC0023C08091200168
:1004D000806880932001D0932901C093280119C01E
:1004E00080912001806280932001D0932B01C093E2
:1004F0002A010FC080912001886080932001D09351
:100500002D01C0932C0105C0C038D1050CF04DCF92
:1005100047CFDF91CF911F9108953FB7F894809115
:10052000060290910702A0910802B091090226B537
:10053000A89B05C02F3F19F00196A11DB11D3FBF1B
:10054000BA2FA92F982F8827820F911DA11DB11DA9
:10055000BC01CD0142E0660F771F881F991F4A95A5
:10056000D1F708958F929F92AF92BF92CF92DF9270
:10057000EF92FF926B017C01D0DF4B015C01C11453
:10058000D104E104F104E9F0C8DFDC01CB018819F2
:100590009909AA09BB09883E9340A105B10578F3E2
:1005A00021E0C21AD108E108F10888EE880E83E044
:1005B000981EA11CB11CC114D104E104F10421F75F
:1005C000DECFFF90EF90DF90CF90BF90AF909F90E5
:1005D0008F90089560E089E05EDE89E03DDE60E0B6
:1005E00089E059DE60E08AE056DE8AE035DE60E0D0
:1005F0008AE051DE60E087E04EDE87E02DDE60E0DD
:1006000087E049DE60E088E046DE88E025DE60E0E5
:1006100088E041CE1F93CF93DF93EC0180910002DD
:10062000811104C081E080930002D4DFD7FF05C0B0
:10063000D195C195D10911E001C010E0C13981E027
:10064000D80714F0C0E9D1E023E32C9FC0012D9F0F
:10065000900D112460E570E04ED18AE099DE1123FF
:1006600011F061E001C060E088E0DF91CF911F915F
:1006700012CE1F93CF93DF93EC0180910002811182
:1006800004C081E080930002A5DFD7FF05C0D195AB
:10069000C195D10911E001C010E0C13981E0D8074E
:1006A00014F0C0E9D1E023E32C9FC0012D9F900DF1
:1006B000112460E570E01FD189E06ADE112311F09A
:1006C00061E001C060E087E0DF91CF911F91E3CD51
:1006D0001F920F920FB60F9211242F933F938F9377
:1006E0009F93AF93BF938091020290910302A091D8
:1006F0000402B09105023091010223E0230F2D374F
:1007000020F40196A11DB11D05C026E8230F029615
:10071000A11DB11D20930102809302029093030258
:10072000A0930402B0930502809106029091070203
:10073000A0910802B09109020196A11DB11D8093FC
:10074000060290930702A0930802B0930902BF919A
:10075000AF919F918F913F912F910F900FBE0F906E
:100760001F901895789484B5826084BD84B58160AB
:1007700084BD85B5826085BD85B5816085BD80916C
:100780006E00816080936E001092810080918100E4
:1007900082608093810080918100816080938100DC
:1007A000809180008160809380008091B10084609E
:1007B0008093B1008091B00081608093B0008091FF
:1007C000910082608093910080919100816080937C
:1007D0009100809190008160809390008091A100B1
:1007E00082608093A1008091A10081608093A1002C
:1007F0008091A00081608093A0008091210182609F
:100800008093210180912101816080932101809159
:10081000200181608093200180917A008460809320
:100820007A0080917A00826080937A0080917A00C9
:10083000816080937A0080917A00806880937A004A
:100840001092C10068E873E180E090E08BDE8AEFEF
:1008500090E00FDF8AEF90E0DDDE68EE73E080E08D
:1008600090E080DE86E990E004DF8AE69FEFD2DE4A
:1008700068EE73E080E090E075DE8AE69FEFF9DED7
:1008800086E990E0C7DE68EE73E080E090E06ADE23
:100890008CE99FEFEEDE8CE99FEFBCDE68EE73E043
:1008A00080E090E05FDE80E090E0E3DE80E090E0DA
:1008B000B1DE68EB7BE080E090E054DE8CE99FEFF6
:1008C000D8DE8CE99FEFA6DE68EE73E080E090E072
:1008D00049DE80E090E0CDDE80E090E09BDE68EBDA
:1008E0007BE080E090E03EDEC0E0D0E02097F1F3D6
:1008F0000E940000FBCF97FB072E16F4009406D051
:1009000077FD08D013D007FC05D03EF49095819573
:100910009F4F0895709561957F4F0895EE0FFF1FCB
:10092000881F8BBF0790F691E02D1994AA1BBB1B63
:1009300051E107C0AA1FBB1FA617B70710F0A61BDF
:10094000B70B881F991F5A95A9F780959095BC0100
:08095000CD010895F894FFCFDA
:00000001FF
